:20000000003C0120553B010039FB021039FB021039FB021039FB021039FB021039FB02104E
:1C00200039FB021039FB021039FB021039FB021039FB021039FB021011FB021002
:20003C0038B586B004468DF805104FF6FF720120ADF80220090ADFF8545AADF8000002239D
:20005C008DF806108DF8043069462A78204619F0ADFE162803D12978204619F0A3FE07B04B
:20007C0030BD3EB504000D461ED0DFF8240A0068224619F093FEFF2815D0002000900023F1
:20009C0001AA294620460EF049F960B99DF8040000F075F9C00606D59DF8040000F06FF9E2
:2000BC0010F0040000D001203EBDFEB5164615244FF6FF7290420D4615D100208DF8040082
:2000DC00DFF8C8799DF80400F97988421AD23246294600F03AF800B100249DF80400401C58
:2000FC008DF80400EEE719F055FE50B100F0A2FB40B99DF804003246294600F026F80024F1
:20011C0000E014242046FEBD7CB50D46044606214C43164600F080F8A8B900F078F890B938
:20013C009DF80700002E14BF054320EA0505E9B2814206D08DF807506A460821A0B217F068
:20015C00B1FB012076BD002076BD2DE9FC410646344606235C438846154600F05DF80028B9
:20017C0052D100F054F800284ED1DFF82079387A800018F0B5FE040002D100F02BFA43E051
:20019C00397AE03689062246090EB0B217F062FB002835D1204600F058F85FEA08000ED1A2
:2001BC003A7A9206120E0021204618F054F838BB3A7A92000021204618F0F6FC16E02146C5
:2001DC0000F030F858B9280004D02146002000F029F810B900F0DDFB16E0A0F800808178AE
:2001FC00A9420DD085700DB900210180204600F02CF8397A89062246090EB0B217F052FBCD
:20021C0000F0C7FB012000E00020BDE8F6810622FF21684618F01FB820346A460821A0B27F
:20023C0017F018BB70B5DFF864381D7A002200E0521CD4B2AC4206D231F824608642F7D1A0
:20025C0001EB840070BD002070BD10B50021DFF83C280AE030F82130DB4320F8213000EBA2
:20027C008103491C9C78E4439C70137A9942F1DB10BD2DE9FE4FDFF814480646207A0F4660
:20029C0091469B46800018F02BFE5FEA000803D100F0A0F90A206CE00C9D0297B24606274E
:2002BC0017FB0AF7029A07F12000082100F064F88DF80400304600F09FF8227A9200FF2112
:2002DC00404618F071FC9DF804000090E036217A89064246090EB0B217F0E4FA009E02997F
:2002FC000643206A082200EBCA0018F067FCBDB10299887900232A4600F0010019F046FDEB
:20031C0000281CBF9DF93C00002803D0DFF884170120087007F123002A4600F02CF80643FE
:20033C005FEA090205D007F121001C2100F024F806435FEA0B0205D007F122001C2100F05B
:20035C001BF806430D9A62B107F1240000F013F8054625370EAA0421B8B217F0A3FA05437A
:20037C002E43207D08B100F09AFA404618F0C0FDF0B2BDE8FE8F102180B217F093BAE0B5AB
:20039C000623584320306A46082180B217F062FA10B99DF807000EBD00200EBDDFF8EC06DB
:2003BC00007808210CF0DCBF38B50025DFF8DC4619E0206A062313FB05F300EBC502203327
:2003DC00082198B217F046FA58B1206A0622FF2100EBC50018F0E8FB206A00EBC501002274
:2003FC00CA716D1CEDB2E1798D42E2DB207D10B1BDE8314053E231BDF8B5DFF89016DFF800
:20041C009836C9791E680C460A4600E02A46D5B23DB1551ED2B2324412F8017C8742F5D140
:20043C002C46E4B220464D1E07E01718165C7F7817541A680244401C5670A8421A68F4DBB8
:20045C00AC4204DABDE8F840052017F02BBAF1BD70B50024DFF8345600E0641CE879E3B218
:20047C0083420BD22B6AE6B20622FF2103EBC60017F0F1FE0028F0D0E0B270BDDFF81C26DF
:20049C00117819B1DFF810060168087870BD38B500200024DFF8F45503E0E0B200F008F834
:2004BC00641CEA79E1B2914201D20100F5D032BD2DE9F84F83465D46062313FB05F58EB017
:2004DC0005F1200701AA0821B8B217F0C3F9002873D10622FF2101A817F0BDFE00286CD15E
:2004FC00DFF8A865307A800018F0FAFC5FEA000903D100F06FF80A2061E01C22FF2103A8E3
:20051C0018F052FB327A9200FF21484618F04CFB05F123040AAA1021A0B217F09BF960B927
:20053C001022FF210AA817F096FE30B99DF80A0001A900F0010019F025FC082200F042F85F
:20055C0001AA0821B8B217F0ADF98DF8000003AA05F1210000F03AF8074605F1220003AA17
:20057C0000F034F8804603AA1021A0B217F09AF9044605F1240003AA102100F028F8824699
:20059C00253503AA0421A8B248EA070717F08AF92743317A9DF800504AEA070707438906DA
:2005BC000BF1E0034A46090E98B217F07BF90743484618F09DFC3D4300E0002528460FB0A9
:2005DC00BDE8F08FFF2101A818F0EEBA1C2180B217F068B9042016F01DBF2DE9F84187B03F
:2005FC00FF208DF80000DFF8A454E87918F078FC040003D1FFF7EEFF0A2030E01022FF2148
:20061C0003A818F0D1FAEA79FF21204618F0CCFA0622FFF7D7FF03AA1021022017F042F953
:20063C00064603AA1021032017F03CF906436A460121042017F036F90746E9792246052064
:20065C0017F030F9054601AA0621062017F02AF9804600F09EF93E432E4348EA060008B0B2
:20067C00BDE8F081DFF824144088097817F07AB8F0B5A9B006460D46144619F08BFB08B970
:20069C001420ACE0A4220021684618F08DFAADF800600DF12607DFF8F463F078B17B8DF8E3
:2006BC000400F07B8DF8A000279861F30000B17B27908A074CBF0222002220F0020010434D
:2006DC002790CA064CBF4FF48072002220F48070104327908A064CBF4FF40072002220F481
:2006FC000070104327904A064CBF4FF48062002220F480601043279049074CBF0421002123
:20071C0020F0040008432790307C02280CBF01200020787419F032FB412807DB307C00B1FB
:20073C0008209DF8991008438DF89900B07CB8B10121B974202206F18C010DF1390018F0E5
:20075C003DFA202206F1AC010DF1590018F036FA202206F1CC010DF1790018F02FFA00E043
:20077C00B874707B8DF8050090B1DFF83473102207F110010DF1060018F020FA9DF899006E
:20079C00082805D1102239460DF1160018F016FA307B8DF8260030B11022DFF808130DF101
:2007BC00270018F00BFA307948B1022D18BF032D03D1279840F002002790012100E0002172
:2007DC009DF899000143B0788DF8991000B1042001438DF899106846214619F0CBFA29B032
:2007FC00F0BD2DE9FC41154615244FF6FF72904288460DD10027A54EF179F8B2884216D235
:20081C002A464146FFF780FC00B100247F1CF3E719F0C0FA50B100F00DF840B99DF80400BE
:20083C002A464146FFF770FC002400E014242046BDE8F681002100910023417901AA01F05A
:20085C000101801D0DF06ABD70B504460D4606204543082B88B0164603D1300758BF223509
:20087C0000D521351C220021FFF7ADFE01AA1C21A8B216F0EFFF80B99DF81E00C01F0A28FE
:20089C000BD29DF830000090F20801AB02F0010206F00101204619F069FA08B070BD38B5D3
:2008BC0019F060FA0024794D0FE0286A0622FF2100EBC40017F0CFFC28B9286A00EBC40162
:2008DC00002019F04BFA641CE4B2E8798442ECDB31BD3EB50C46002501460095002301AA88
:2008FC0020460DF01BFD38B99DF80400FFF747FDC00601D401203EBD00203EBD2DE9F04184
:20091C00694F3C6806468846154603E02089B04224D02468002CF9D10C2018F0E1FA0400E3
:20093C0019D0268184F80A8000202060E07245B10821284617F0C6FD606018B900F029F81A
:20095C000AE06060396811B93C6004E0014608680028FBD10C600CB9152018E019F0FAF9E1
:20097C0008B1002013E00120E0722A4641463046FFF77EFE04464548C06900281CBF43688F
:20099C00002B03D000220021304698472046BDE8F081204618F0ACBA38B505464248046827
:2009BC0003E02089A84204D02468002CF9D1012032BDE07A012807D100F05CF820B1334854
:2009DC00007804210CF0CCFCE17A491CE1722846C9B200F002F8002032BD38B50229044643
:2009FC002A4D02D003290DD01EE042F6C921FFF717FB02001CBFE869002818D04368B3B114
:200A1C0005210CE042F6A621FFF70AFB01001CBFE96900290BD04B684BB1024604212046FA
:200A3C0001B0BDE830401847BDE8324000E031BD10B51D4A1468002101E0214624686CB1D6
:200A5C0023898342F9D1206800290CBF10600860606808B118F04CFAFFF79BFF002010BD9F
:200A7C00024604201049096819B10B899342FAD1C87A70470C48006828B1006818B1C17A2C
:200A9C000029FAD17047002070470000001C0020680F0020DC3F0020703F0020DB3F0020A1
:200ABC00F03C0020203D0020743F00202DE9F04385B0064600208946009090461C46B179D3
:200ADC00002304AA30460DF029FC20B1FFF7C0FC8DF810001BE0D4B19DF810300620434378
:200AFC0023336A46102198B216F0B4FE78B91022FF21684617F0AFFB48B9B079314600F02E
:200B1C00010019F03FF910B1194901200870194F9DF81000F979884227D201200390009431
:200B3C0043460C980D990E9D019002914A469DF810003146FFF79DFB044655B1397A9DF825
:200B5C0010008906E0302A46090E80B216F0AAFE0443200005D09DF81000FFF7A9FCFFF7F1
:200B7C0023FC204605B0BDE8F0831520FAE700BFDC3F0020001C00202DE9F04FADF1240D97
:200B9C0007F014FBB54C04F10C01204613F09CFE04F1400018F03EFA002504F110063060F8
:200BBC0041F28832AF49AE4800952B46019004F14C0013F08FFBAC48AC4915232A460090B8
:200BDC00102010F04BF9AA49102002232A4610F045F90CF0FBFFA74910204FF0FF3210F009
:200BFC003DF9A54910204FF0FF3210F037F916F041FF4FF0FF3010F085FD4FF4FA77642077
:200C1C000523ADF80E000221ADF810700DF10E02ADF81230284614F069F80120022104AADB
:200C3C0014F064F802200DF11202014614F05EF804F1140017F036FFC84904F138021020AE
:200C5C0010F00CF92178502016F0F2FAC4490246102010F003F92178502016F0E9FAC149FB
:200C7C000246102010F0FAF8BF491020FB2240F6480310F0F3F8BD491020B7A210F0EEF8B8
:200C9C00BB4810F0EBF94FF6FD7011F09FFB2178502016F0CDFAB74F034604220220B64998
:200CBC0000901020019710F0D9F806F1D40B04F1E4062946C022304610F085FB4FF6FF7738
:200CDC000820401E26F8187BFBD14FF0FF30294612F080FBC64EA06029464FF0FF32CAA03E
:200CFC003060304616F02EFEA068C24B0522314616F0FEFBC04EA06831782A46C7A316F04F
:200D1C0064FCB046E06800214FF040424FF0FF3319F01CF800280790F4D00020029005A9C6
:200D3C0002AA03A815F0B6FF002840F08981BDF80C00102840F0808120789DF814108842DF
:200D5C0040F07A81029908884FF6FF72824200F073810D46287891381ED01F3803D0203897
:200D7C0000F0678168E12B79A06898F800207E2B04D07F2B0AD10989C1A301E0297AC4A3F7
:200D9C000091521CD1B2002216F01FFC297905F1080018F0D7FF4FE168780E3843D0401E2D
:200DBC0027D0401E00F02A812E3840F04581A8780C2840F04181EF78A06898F8001087B936
:200DDC00EA79012A08D0022A08BFC2A205D0032A0CBFC1A2C2A200E0C7A20092891CC7A3BC
:200DFC0001E0491CCAA3C9B2002216F0EEFB0C2015E0A88842F23201814240F01D81AA782D
:200E1C00A06898F800101A2A1ABF0092C5A3CDA3491C0022C9B216F0D8FB42F232002946D7
:200E3C000FF058FE08E1A968AF88087841F20542BF1A23D0A7F62B47002F40F0FD80002837
:200E5C0040F0FA80C878009008790190A16898F80000D4A38C46C01DC3E0C046BC16002090
:200E7C008A250020116B01004A230020FD2B01002D580100457B01005D5E0100A968491CDB
:200E9C0091F902A0002840F0D7804A78087800EB022017F0EDFA0746D4F808C098F80000AD
:200EBC00082F069080F29B80BAF17F0F00F08A80F80000EB07100BEB0005697C4A1C6A746B
:200EDC004118594481F80CA0697C05231E46324658440C3091FBF2F25A43891A697400216C
:200EFC0010F9012B761E0A4411B2F9D1184691FBF0F040B2A874EE7C002E63D110F11F0F5F
:200F1C004FF0000904DD2E7D022E18BF002E35D195F9120010F11E0F07DA10F1290F04DDDD
:200F3C002E7D012E18BF002E13D110F1330F04DD10F1280F46DA2E7D36B910F1320F41DA5F
:200F5C0004224FF002091AE004224FF00109062616E00126324613E000C046C0F97B0100AD
:200F7C00D96C02102D6D02100D520210397F0110757E01006425002031A00000022202265E
:200F9C006B7D9E4202D1A97D022901DB9E4219D0288811464B4615F0F9FA0120E874687DB2
:200FBC0086421CBF0020A875B9F1000F04D0B9F1010F14BF022606266E7598F80000D4F888
:200FDC0008C00690F800CDF800A000EB0710584490F9120001900698BAA3401D01E0401CDB
:200FFC00C0A3C1B20022604616F0EFFA24E0C0469C39002015CC0000742300200820002168
:20101C0006F022FF18E0C04653696D706C65205065726970686572616C00C0463D3D3D3D0F
:20103C003D3D3D3D3D3D3D3D3D3D3D3D3D3D3D3D00C0084601F098F8029808B118F082F95F
:20105C000798C00FFFF45EAE206918F077FE00287FF458AE206917F0A0FA051CF4D02878B1
:20107C00401E082800F22481DFE810F00801F400CE00A6008400220120011A011A00C046F4
:20109C004D54552053697A653A20256400C046C046432056696F6C617465643A2025640016
:2010BC0068684688304617F0E3F9A26898F8001008280DDAC10001EB00115944C87D012893
:2010DC0040F0F6807E49324610200FF0C7FEEFE084A3E3E0324D00C0434F44454400C046BE
:2010FC00556E6578706563746564205048592056616C756500C046C0314D00C0504859207C
:20111C005570646174656420746F20257300C046504859204368616E6765206661696C75A3
:20113C00726500C05048592055706461746520537461747573204576656E743A203078259B
:20115C007800C046504859204368616E6765206661696C7572652C207065657220646F6546
:20117C0073206E6F7420737570706F7274207468697300C06E68707A50B1A848009098F8C9
:20119C000010A068002263A3C91CC9B216F01DFAA2480090A049F288002310200FF05EFEEB
:2011BC0086E0C046525850683A2025642C20545850683A20256400C06B681879A26898F811
:2011DC0000101B78C3B15B1E0FD05B1E07D05B1E6ED1002808BF53A30FD057A30AE00028AC
:2011FC0008BF5BA309D05FA304E0002808BF63A303D066A3009000E069A3C91C1046C9B24C
:20121C00002216F0E2F953E06E68A26898F800003168491E0CD0491E08D00E3912D17168EE
:20123C000B780093498862A3019105E069A300E06DA3716809780091001DC1B21046002240
:20125C0016F0C3F93068B0F1004F31D0706815F0FFFA2DE068680078010908D2400927D3D5
:20127C000E2017F051FC18BB13F0C8FF20E00D2017F04AFCE0B915F0BFFC19E0686800781F
:20129C00022815D102200DF1150116F007FA9DF815000090A26898F8001058A3491CADE70D
:2012BC006868B0F801000BF0C1FE05E012F06AFF686808B115F0CCFA284615F0C9FAC3E65C
:2012DC000D2B0210525353493A25642064426D2C2041564720525353493A25642064426DF0
:2012FC0000C046C0436F6E6E656374696F6E2068616E646C65206973206E6F7420696E20EC
:20131C0074686520636F6E6E4C6973742021212100C046C050617373636F64653A202564A8
:20133C0000C046C0426F6E642073617665207375636365737300C046426F6E64207361766D
:20135C0065206661696C65643A20256400C046C0456E6372797074696F6E20737563636580
:20137C00737300C0456E6372797074696F6E206661696C65643A20256400C0465061697286
:20139C00696E6720737563636573730050616972696E67206661696C3A20256400C046C0AB
:2013BC0050616972696E6720737461727465640041647620536574202564206469736162FD
:2013DC006C656420616674657220636F6E6E20256400C04641647620536574202564204499
:2013FC00697361626C6564004164762053657420256420456E61626C656400C041647175D7
:20141C0069736974696F6E206672657175656E63793A20256400C046456B010040E2010002
:20143C002DE9F84F012015F0FDFA012816D1DFF898663078002118F07DFC040004BF002000
:20145C0015F0E8FF00202072201D0DF0B7FE05F00FFD050003D1812018F068FC30E30120C8
:20147C006871DFF86826DFF868064178491C4170A879A0724020317811700CF07FFD286041
:20149C00616D4A78206DD10620D5816C0A681179032908D0816C0868007903280CBF01206D
:2014BC00002015F0B7FF206D816C0A6890F86C0002F1080701281CBF002015F0ABFF216DF2
:2014DC00486F296800F5B060C8604AE0C16E0A681179032908D0C16E0868007903280CBF14
:2014FC000120002015F096FF206DC16E0A6890F8980002F1080701281CBF002015F08AFFF3
:20151C00226DB5F87401D2F8A0102A68DFF8C435DFF8C465D16097F82690B9F1030F1BD8FD
:20153C00DFE809F002050E1101F5B06101E001F53471D16005F59A711888088718880EE033
:20155C0001F5355101E001F6B871D16005F59A7130880887308802E001F5B061D160A5F806
:20157C00740106222868DFF87465C168DFF8708501F59071C160B91C3878C0F3801085F820
:20159C002E0105F5947017F019FB042207F10E0105F1240017F012FB306895F8069000F1E0
:2015BC000C03042207F10E0103EB491017F006FB3068AB7900EB4313032207F1120103F163
:2015DC00100017F0FBFA05F12C09787D89F80200022207F1160105F1300017F0EFFA0222D3
:2015FC0007F1180105F1320017F0E8FA022207F11A0105F1340017F0E1FAB9F808006884C5
:20161C00022207F11C0105F1360017F0D7FA99F80200B9F80A10400089F802000901B9F895
:20163C000400A9F80A104000A9F8040089B2B9F806004000A9F8060003046A8C521CDB0BC0
:20165C005A438A4201D280B230B998F8000080210BF086FE3B2133E105F12E01284618F05C
:20167C0061FB0520A8814FF01C0A284618F056FB052207F11E0105F1610017F09FFA97F8B4
:20169C002300400989F8000018F044FB688205F59A72618D401AD08005F1610197F8230068
:2016BC00DFF8407400F01F0089F80F00284618F02DFB616D4A78206DD1064CBF816CC16E2B
:2016DC0041F62102086800210171A97938681AFB01F142520021AB791AFB03F303445980C4
:2016FC00AA791AFB02F210444160616DDFF8F8034A78D1060DD5DFF8F4138A7851060AD57C
:20171C00DFF8EC23138841F20A418B4208BFDFF8E403C5F89C01D5F89C11284688473A68A9
:20173C00A97902F10E031AFB01F15854AA7938681AFB02F202440020D0733968A87901F18B
:20175C000E021AFB00F0115C89F80D10606D4178CA061DD595F8960108B915F05BFEA979A0
:20177C0038681AFB01F1014495F89601421E0A74A87939681AFB00F00844002141743A68D4
:20179C00A97902F112001AFB01F1002242522BE0A97938681AFB01F10144206D90F84020BB
:2017BC000A74A87939681AFB00F00844216D91F841204274206D3968AB79403001F1120286
:2017DC001AFB03F34188D15205F5CB710078012200F0030082400A70226D92F84000800815
:2017FC0014BF0120022008713968A879DFF808B301F1140231681AFB00F301EB4010D050E5
:20181C00A87939681AFB00F00844BC498161DBF814000078C107DBF8141009784CBF1F20C9
:20183C000F208A07DBF81410097848BF40F020004A07DBF81410097848BF40F040000A07AC
:20185C003168AA7901EB421348BF40F080001872A979306800EB41120B2050723168AA798D
:20187C0001EB42100421A64A81721078012806D13168A87901EB40120121D17207E0DBF867
:20189C0024003168AA79407801EB4213D8723168A87901EB40121F2111763068AA7900EBA4
:2018BC00421100204876A8790CF0ACFAAA79316852018850AA7931685201885820B9072141
:2018DC00284615F063FFFBE08E48AA79016801EB021018F017FAA87931688A4B01EB4012F6
:2018FC00196801EB00105060A979306800EB41125168C9F83C10AA7952018158C9F844107D
:20191C00042198F800000BF02BFD616D4A783868D10648BF02210AD4A9791AFB01F1014456
:20193C000A7C02F00302022A14BF04210621B9F8042095F806C04FF4C8738A18698AAA617D
:20195C005143B1FBF3F35B1C6B611AFB0CFCD5F800E06044DEF80CC040F6C41101FB02C227
:20197C00D21AA2F5A8628260AA7938681AFB02F283189A682B689A6000F10C03AA791AFBAE
:20199C0002F20C309B5C03F0EF038354A8793A681AFB00F002F10C030C321B5C03F07F0354
:2019BC001354A8793A681AFB00F002F10C030C321B5C03F0F00343F002031354AB793868DC
:2019DC001AFB03F31844427B02F0F00242F001024273AA7938681AFB02F2024490682B685C
:2019FC0018613068AB7999F802C000F11402686940005B0111FB0C0000F5F660D05095F8BF
:201A1C00960104280DD13068AA7900F114034FEA421C143053F80C20AB795B0102F56162BA
:201A3C00C2503068AA7900F114034FEA421C53F80C20C5F83421AA7900EB4210C37C03F003
:201A5C00F00343F00403C374DBF830003268AB79006802EB431CB9F8062042436423B2FB01
:201A7C00F3F35943A1F59661CCF81C103068A97900EB4110C27E02F0F00242F00402C276C1
:201A9C00A97938682A681AFB01FA00EB0A01516028460E2118F032F91B49072008702046E6
:201ABC0014F046FA19488178880704D5AA790021204618F01FF928681549164A4161826167
:201ADC00BDE8F14F03F0B6B8D50F0020D70F0020780E00208E0F0020900F00209C0E0020AE
:201AFC00C70F0020980E002081010210C00C00209A0F00204DE5011094BE0100980C00206B
:201B1C00CC0F0020A40E0020C80F0020200E00204DBD0000020480802DE9F84F054688B0A7
:201B3C00A978DFF83C66002710294FF0060A3CD8DFE811F0110012031203120312033C00C3
:201B5C00CF0012031203750215010001C70212034B028D020A036878002826D118F0C6F856
:201B7C00044618F0BFF8054618F0B8F88DF8000022461021022015F095FE2A4610210320A1
:201B9C0015F090FE6A460121042015F08BFE9DF80000012818BF032807D1012018F09AF8BF
:201BBC0002460621062015F07DFED5E268780028FBD195F80CB06C8900900023E97801AA6C
:201BDC0001F00101281D0CF0A9FB00284FF0010875D19DF80400FEF7D2FB8146BBF1080F76
:201BFC00307A08BFB846800017F07AF9050003D1042015F00FFCAFE270789DF80410022807
:201C1C000CBF0120002000905B464A462046FEF71BFE1422002102A816F0C6FF9DF8040002
:201C3C001AFB00F0243002AA102180B215F012FEB0B91022FF2102A816F00DFB80B99DF8CA
:201C5C0004001AFB00FA0AF1250306AA042198B215F000FE02AA09F00101204618F036F8CD
:201C7C00317A9DF804008906E0302A46090E80B215F0F0FD98B92846FEF7E7FABA4609E03C
:201C9C0005EB8000018819B18278204616F046F90AF1010A317A5FFA8AF08842F0D3B07A85
:201CBC0030B95FEA897003D53178204615F05AFD9DF80400FEF7A0FB284617F019F9707802
:201CDC00022805D1B8F1000F02D0204611F094FA42E2A888FEF7ACFE17F0F4FF0028F7D18C
:201CFC00707D012808D1FEF7D2FB706A77750422002116F059FF17E0B07D012803D1FEF796
:201D1C006CFCB77510E000240AE0706AE5B2415D012904D1E0B2FEF7CBFB716A4F55641CBB
:201D3C00E0B2F1798842F0D3502016F0F7F9FEF73BFB11E218F00EF800280CD0F0690028E7
:201D5C001CBF0468002C07D0286900906B7B2A7B6989E81CA047FEE168890121F1E16878F0
:201D7C000024002840F01A81A879C10740F116810822002105A816F017FFA88818F00AF831
:201D9C00040076D06F694FB30622002107F1110016F061FA68B306220021384616F05BFA13
:201DBC00D0B9387C00F001084FF0000909F1010987F811900020009000230022414607F1F1
:201DDC0011000CF0ABFA00285FFA89F002D10028ECD101E000280CD10020686106226079B3
:201DFC0000F001008DF81A00A11D05A816F0E6FE1FE06F69EFB1387C00F001008DF81A0027
:201E1C00062207F1110105A816F0D8FE6079012805D10622A11D04F10C0016F0CFFE062231
:201E3C0007F11101A01D16F0C9FE387C40F002006071A879410720794CBF40F0020000F00C
:201E5C00FD002071A9790A0754BF00F0DF0040F020002071A9799DF81B00890801F001018C
:201E7C0008438DF81B00A9790A074CBF0821002108E0FEF7FFFD0028ECD0307804210BF04E
:201E9C006FFAE7E708438DF81B000020009000239DF81A1004AA05A80CF040FA20B1FEF71B
:201EBC00D7FA8DF810001AE06869C0B19DF810001AFB00FA0AF123036A46102198B215F05F
:201EDC00C9FC60B91022FF21684616F0C4F930B99DF81A0005A900F0010017F053FF9DF820
:201EFC001000F179884255D2E8680021039105A90269019002924FF6FF78686900902B6967
:201F1C00AA689DF81000FEF7B4F90446AF88B06A48B906F1180100910223924A4146012066
:201F3C0017F0CCFEB062B16A19B3FF200390022200230292019307A800900DF11203328B8B
:201F5C00384605F0BBFA68B99DF812009DF8131000EB012290B228B1B06A418992B23846EE
:201F7C00FEF7A3F8328BB06A0023414617F0A2FEB062200005D09DF81000FEF799FAFEF764
:201F9C0013FA200007D1707A0028A88804D1FEF703FD03E01524A888FEF74AFDF06900280B
:201FBC001CBF4368002B0FD06A78A888012198476878002808D1A879C10705D5F369A88832
:201FDC0022465C680321A047BEE0687806281BD1A88817F0DFFEB8B1F17C012904D013D348
:201FFC00032907D00CD30FE04179A8880022FEF785FC09E00022002140F2094003F09EFD3D
:20201C00A888052117F052FEF06900281CBF4368002B03D06A78A888022198479BE00097CC
:20203C000023E97801AA01F00101281D0CF076F90028F3D19DF804001AFB00FA0AF12503FB
:20205C0005F10C02042198B215F02CFC83E0F06900281CBF4368002B03D0A88800220021E9
:20207C009847707810B9A88805216AE0A88817F091FE040070D0A87AC10712D5009700237F
:20209C006179002201F00101A01D0CF047F900281EBF60790028012803D0E868C0F34020D7
:2020BC0028B1307C022807D1A87A010704D4A888032117F0F7FD4FE06179A88805F10802F3
:2020DC0027E02F7BAD88284617F064FE040042D017F040FE00283ED100900023617901AA5D
:2020FC0001F00101A01D0CF019F928BB9DF80400FEF745F907F00C07042F11D0082F0BD027
:20211C000C2F0FD100F0090109290BD0617900222846FEF7F3FB1EE010F0090F02D1F5E76F
:20213C00C107F3D501220092A37C9DF8041002462846FEF789FB0EE070780028E6D105216C
:20215C00284617F0AFFD06E0FEF794FC18B1307804210BF005F90127384609B0BDE8F08FC5
:20217C00001C002054B801002DE9F04F0746C44CC44DB878A2682978ADF1240D002800F075
:20219C008381BE4E401FB0A30FF2D82900F0B280401E4FD0401E1ED00A3840F03382B8880D
:2021BC00BE7BADF8080078898DF8126060B9ADF80E00B889ADF81000F988ADF80A103E895C
:2021DC00ADF80C60012000E00020AA498DF8130002AA0D4615E1A849BA88102002AB0EF023
:2021FC003DFEF87840B92D78A6680DF10A0012F09BF886A3009009E02D78A6680DF10A0072
:20221C0012F092F8B978009186A30190AD1C30460022E9B215F0D9F904F1300015F0E9FDB7
:20223C00041C00F0F78120890AF000FF204614F00FFBEFE1314610201A460EF00FFE5FFAA9
:20225C0080F82978A068002280A3491CC9B215F0BCF9CDF800802978A06800224B46891C1C
:20227C00C9B215F0B2F9B888814616F001F908281FD0C60006EB00163619E436B068071C80
:20229C000ED016F055FE10B1384617F0EFF8384617F004FD384614F0DBFA706814F0D8FA33
:2022BC00484615F0A1F8484613F0F6FE484610F08DF8B8F1000F08D104F14C0017F0D6F897
:2022DC00CE480221012215F03DFB00260096CC4FA2781020334639460EF0C0FD0096E27885
:2022FC001020334639460EF0B9FDA0682B780246DB1C8AE1314610201A460EF0AFFD5FFA87
:20231C0080FBCDF800B02978A06800224B46891CC9B215F05AF9B84698F80100002853D102
:20233C00B8F80AA004F1E409082000264FF6FF72A9F1180737F8181F8A4204D0401E06F12D
:20235C000106F7D129E0A7F800A0032017F03AF87860E0B1082101707868A0F801A024208E
:20237C0017F030F8B86018B9786814F071FA0EE00121F000009100EB061048444168019181
:20239C00B149806841F27072002311F0A3FFF000012100EB0610484401752D78A66808F1A3
:2023BC00040011F0C1FF6D1C009000229BA3E9B2304615F00AF991480121022215F0C2FACA
:2023DC0004F14C0017F050F8BBF1080F12DA607880B9002600968A4DA278102033462946CC
:2023FC000EF03CFD33460093E278102029460EF035FD0FE1954DE278102029460EF02EFD61
:20241C00A278294610200EF029FD03E14C696E6B20506172616D20557064617465643A20FF
:20243C00257300C04C696E6B20506172616D20557064617465204661696C656420307825B4
:20245C00783A20257300C04600C046C044657669636520446973636F6E6E656374656421C6
:20247C0000C046C04E756D20436F6E6E733A20256400C046D9570110F9DC0110AD58010013
:20249C00BC160020742300207878002840F0C2803B7AFE798DF80A30FA7A8DF80960B8796F
:2024BC008DF80F20BB7A8DF80800082100268DF80E3002AA8DF80C607B7A8DF80B60304680
:2024DC008DF80D300AF0DAF92978A06857A33246491CC9B215F079F8A01CDFF878915C499F
:2024FC005D4B00904A4610200EF0B8FCC0B208B116F066FA4FF015085948CDF80080DFF86C
:20251C005CB10190A2783346594610200EF0A6FCC0B208B116F054FACDF800805148019011
:20253C00A2785946012310200EF098FCC0B208B116F046FAA2784C49102092230EF08EFC53
:20255C000096DFF8BCA0A2781020334651460EF085FCC0B208B116F033FAE01C3C49434B50
:20257C0000904A4610200EF079FCC0B208B116F027FACDF800803E480190E278594633465C
:20259C0010200EF06BFCC0B208B116F019FAE2783549102092230EF061FCB046CDF80080F3
:2025BC00E2781020514633460EF058FCC0B208B116F006FA2D78A668B81D11F0B5FEAD1DDC
:2025DC0020A1009142461CA30190E9B2304614F0FCFF11F0D7FD274F012040F6B832434690
:2025FC001949009004F17000019711F073FE22480221424615F0A6F90CE0C0469C390020BE
:20261C00ED7401104B1C891CCEB21046D9B2324616F034FD09B0BDE8F08FC046436F6E6E9F
:20263C00656374656420746F20257300496E697469616C697A656400257320416464723ADB
:20265C0020257300494400C0116B01006502021099010110477A0100D0220020F9C4000027
:20267C00202300205F2300201DEF0110EC220020352300208B2500209C3900202DE9FE4F4E
:20269C0004460020009000250CB914F0C3FE04F1500841F62300D8F8007038807D800222B5
:2026BC003A737A73694620460AF088FF08B9072051E2009901B1B860B8682061DFF89C0438
:2026DC00017884F8B810D8F80400407A12F0F0FE25302076207EB873FD73D8F80400017D2D
:2026FC00022904BF002014F095FED8F80400007D012802D10020002104E083280CBF06200B
:20271C00022020213874797404F12406DFF850A4DAF83C0041690868717901EB410108442B
:20273C00B0F801207A82D8F80400417848060AD5607DC10604D5E07F40F04000E07702E079
:20275C0040F04000607507F15C0904F1300089F80050B17E890001F0040189F80010B86668
:20277C00607DC10656D5D8F8042051788A060CD500F0FE006075D8F80400417811F0030FDD
:20279C0003D1E07F00F0FE00E077607D17F082FAA075421C387CC0F38001002392B200F093
:2027BC00030017F073FAA0831E20A28B02F59B7393FBF0F01E2101FB1030C0B208B1C0F12E
:2027DC001E00821802F59B7262831E20A28B02F5967293B293FBF0F001FB1030A283C0B24C
:2027FC0008B1C0F11E008018A08380B2E27D618B521E50434018608307F13005608BB430C3
:20281C0080003866062089F80300E17F41F00801E17720E040F001006075D8F804104A7836
:20283C00510744BF40F002006075607D17F032FAA0750023401C82B2387CC0F3800100F06A
:20285C00030017F023FAA083A08B00F59670A0833D6689F80350A17D207D61F3050007F146
:20287C008801207508700322607D48708A70B07E800000F0040040F003008870F27ED200E3
:20289C0002F00802104388700020C870C7F89000B08BC0F30B00B083D8F80410CA7D40EAAD
:2028BC000230B0830022617D01F0FE0120460AF035F9019700271EE01C2010FB07F004EB2F
:2028DC00000B01991C220BF1640016F077F90BF16C00052101717F1CA28B92000260FFB2B6
:2028FC00DAF83C104A691168737903EB43031944B1F801204281E07D401E8742DCDB019F8D
:20291C0020460EF021F8E07D012809D013D3032808D03EBF04F164007860C8F818500AE096
:20293C007D6008E004F16400786004F18001C8F81810C8F8345041F62400388600217986AA
:20295C0007F13C05B868618B00EB8100B8630221822028706970002194F82100E97000F042
:20297C003F00A870D8F80400807D012818BF022803D100F07F00401E04E083280CBF0620C8
:20299C0002202021287169714FF0000BDAF83C0041690868727902EB42021044B0F80110AA
:2029BC00E980C7F86CB0D8F80400417811F0030F20D017F067F9F866DAF818000078C10738
:2029DC00DAF8181009784CBF1F200F208A07DAF81810097848BF40F020004A07DAF8181039
:2029FC00097848BF40F040000A0748BF40F0800089F8140089F815B0D8F80410594A897C94
:202A1C0001F0030189F81510B07E800000F00400014389F81510F07EC00000F00800014309
:202A3C0041F0100189F81510107838B199F8140000F0FE0041F0400189F8140089F81510E1
:202A5C00E07F17F027F984F82000204617F016F9E07FC10636D5D8F8040094F82020417832
:202A7C00521C88074EBFD21EF07F12182879C0F380010023D2B200F0030017F007F9308081
:202A9C001E22308800F59670C0F11E0190FBF2F21E2000FB02113171D8F8041048788107CE
:202ABC0031884CBF00204FF49B70401830807080B86B318832795218A63200EB82007867BB
:202ADC00022002E0C7F874B0002089F8170004F13000C7F8800007F18400D8F804104A78B5
:202AFC00510707D504F13802026099F8150040F0200007E01C490A685168016099F8150081
:202B1C0000F0DF0089F81500A17F94F8200060F30501A17740F60B002882A5F812B0DAF8DB
:202B3C003800008880007865DAF83800008800B1072028770220687794F84510E983D8F835
:202B5C0004004178880744BF0121E983009808B109F022FE0020BDE8FE8F00BFD23F0020D0
:202B7C0094BE0100880E00206C0F00202DE9FC47D44C0F460546F80B80F006826078DFF8D2
:202B9C005883B90F80F0AA81B90880F09D81F90A80F00281390B80F0CC80380907D2F80F75
:202BBC00C0F0288227F080470FF0DAFB22E216F001FC814615F072FA002800F0B48008203A
:202BDC0016F0E0FA002840F0AE80802016F0DAFA002840F0A88068460CF09AFE012803D13A
:202BFC000098002800F09F8094F84102002840F09A8000250126E8B215F0CCFF48B1837AFD
:202C1C003BB1867290F9090006FA00F0C0B213F03DFF6D1C032DEED3032084F8200004F54F
:202C3C00CC7016F0C1FB484617F024F8D34800252A460168056050F8081CD14940F8085C29
:202C5C0004F15C0015F03AF940460068006B8047A168401A010BA06AC1F1FF3282422CBFA4
:202C7C0008444FF0FF30A06294F82C0020B12069A16AB1EBC02F25D915F020FA294600B197
:202C9C003146081C1BD0BF4840F6090101804580417B06F00F0221F00F010A434273017BA3
:202CBC0005F00F0321F00F0143EA010202732946416016F0FDF8418811F4406FFBD084F85C
:202CDC002C60A56212F0A2F8CE4829460560022014F060FF022014F0FFF811200AF056FE9E
:202CFC00207818B96068483016F0A8FBC648007810B90E200AF04AFE94F82D0020B184F8A1
:202D1C002D50052014F0E8F8C048606284F82050B4F9B000B4F9B210884214BF02200720A9
:202D3C000DF054FE02E0484616F0A4FF27F008073AE720B1042014F0CFF80020607065684B
:202D5C0013F0ECFB38B12846ED696FF4807100224FF00073A847E06858B140460068006BFF
:202D7C008047E2686168801AC860000BC8600026E660A74904F15C00002215F09FF80221DA
:202D9C00D4F89C0084F8201018B104F1DC0016F067FB27F4006707E716F00CFB064615F033
:202DBC007DF9D4F894100028894600F08480002900F081809749042504F15C00002284F814
:202DDC00205015F07BF8304616F054FF04F5CC7016F0EAFA40460068006B8047E0604FF062
:202DFC00010884F80180284614F08EF8D9F810006060D9F81000416AC90803D3036A294609
:202E1C0000229847404610F0C7F9606880F8158060680BF011F96568D5F808A040F60A0229
:202E3C00D01F564600F1010C00E01E46736833B119888A4203D0884218BF8C45F5D1002151
:202E5C007160727B08F00F0322F00F0213437373D9F80C201288904224D06046904221D069
:202E7C002B8E03B3696305F13002518095F83C0001F00F0320F00F00034385F83C3095F85B
:202E9C003D0008F00F0320F00F00034385F83D307260707B01F00F0520F00F0045EA00016F
:202EBC00717300E0E160504616F002F85146404614F070FE02E0304616F0DCFE27F4806792
:202EDC0098E0C046E00F002006F05EFDD4F89C0008B927F002078DE08C0100104E4A116894
:202EFC0041F08001116020B1042013F0F5FF0020607016F05FFA8246D8F8540001680420DF
:202F1C008847D0B1287DC0B1A068B0B18146D8F800002E69006B8047A0EB09002861000B3E
:202F3C002861B04202D280194008286140F6C41181422CBFB0F5967F2961504616F09AFE8B
:202F5C0013F0ECFA80B1EE6928466FF4807100224FF00073B047D4F89400002808BF47F0D1
:202F7C00020701D00FF0FCF92846AD6900214FF080630A46A84727F000573BE01410044070
:202F9C0075360100B43E002016F014FAD4F8AC6066B306F1280106C90A234FF0E0450B4087
:202FBC00154008BF002B21D106F1280191E8000306F1280595E8060006F1280322EA090240
:202FDC0021EA080183E8060016F054FEB16879B1B9F1000F08BFB8F1000F09D03069B6F95C
:202FFC003010B5684B464246A84701E016F042FE27F4804727B104F1DC00394616F030FAEF
:20301C00BDE8FC870000046002BD010009C4000049B8000099800100CC2108402DE9F84FCE
:20303C00DFF85854A9780024FF2904BF002014F0F1F9A87815F05EFD054605F1680605F58A
:20305C00C9773168086805F1900808B1EC8311E0B07B002804BFB07E00280BD198F800107C
:20307C00002904BF3878002804D1287F012804BF688CE8832989E88B4118491C698128466E
:20309C0016F0F4FD01281EBFDFF8F4030178012903D12989EC83491C69814FF6FF79B07E77
:2030BC0001280DD1B28B6989288916F0DBFD38B1298968894A1C93B298422FD0B08B23E0E1
:2030DC0098F8000001280FD1B8F802206989288916F0C8FD40B1298968894A1C93B29842E2
:2030FC001CD0B8F802000FE03878012816D17A886989288916F0B6FD80B1298968894A1CCF
:20311C0093B298420AD0788892B2904206D04844688180B216F0A2FD4844E8833878012892
:20313C000FD128897988401C80B2884209DB7C793C71022038702346A979224600200AF02C
:20315C0043F805F59A71087920B128890021401CE9836881B07E012813D12989B08B4B1CAF
:20317C009BB298420DD1688116F078FD804605F12E008188308C01FB080828460EF028F883
:20319C0003E005F12E01B1F80480EA8BDFF8F492501C00FB08F040F6C41808FB00F1009116
:2031BC002B68D3F80CE07144D960B74B196809788909032940F0168199F80F30B349DB0784
:2031DC0040F10081B5F812C000230CFB00FC4FF4C87EBCFBFEFC0CF1010C0B80A861C5F8E7
:2031FC0014C085F820204FF01C0BDFF8A4A2AB79DAF8000000F108021BFB03F3D1582A68E7
:20321C00116100F10801AB79D26868691BFB03F3121ACA50DAF80000AB7900F108021BFB9E
:20323C0003F3D1582A68916000F10C02A9791BFB01F10C30535C03F0F00343F00203435407
:20325C00DAF80010AB798A1C1BFB03F30021D152387908B914F0DEF8DAF80000AA7900F124
:20327C00100138791BFB02F240088854A879DAF800101BFB00F0084400214174387904283A
:20329C0014D1A879DAF800101BFB00F001F110021031135C3A7A43EA82030B54AA79DAF8B6
:2032BC0000001BFB02F2024420205074DAF80010A87901F112021BFB00F00021115275494D
:2032DC00A8790A6802F114034FEA401C143253F80C00AB79D5F814C05B0100EB4C00D0508B
:2032FC00B07E02280DD10A68AE7902F11403760114329859AB7995F82E605B0118FB060077
:20331C00D05005F12E0299F80F00C30773D5DAF80000AE7900F108041BFB06F60830A3595D
:20333C00AC791BFB04F4A3F5A8630351DAF80000AE7900F108041BFB06F6A3592C68A360AC
:20335C0000981B1A23610868AE7900F1140476011430A359AC79640103F5F66303513879C9
:20337C0004280BD10868AE7900F1140476011430A359AC79640103F5616303510868AC79A3
:20339C0000F1140364011859C5F83401424B186B0C68AE799288006804EB461742436424BB
:2033BC00B2FBF4F408FB04F0A0F59660F8613B480278012A48D10868A97900EB411201204F
:2033DC00D07248E00B885B1C1FFA83FCBCF1010F11BFB5F812C005F59A7EBEF806C00CF22D
:2033FC00DC5CF2E6698A41434FF4C873B1FBF3FC0CF1010CF2E6042C0BD10868AE7900F19B
:20341C00140476011430A359AC79640103F56163035138790B68AE7904280CBF4FF4AA50A8
:20343C004FF4E66003F114047601A359181A938808FB03F3A3F516739842A7D30821284616
:20345C0014F0A4F9012016E0586A0968AA79407801EB4213D872A879DAF800102A681BFB54
:20347C0000FB01EB0B00506007210D48017028460EF0DCFC0020BDE8F28F00BF780E0020B1
:20349C00D10F0020980C00203C0F0020C43F0020980E00209C0E002094BE0100CC0F0020E0
:2034BC00C80F00202DE9FE4F0546DFF82404DFF824640278002A4CD0052A73D0062A00F09B
:2034DC008080072A18BF082A00F0F7800A2A00F0D381112A02D0132A70D0F1E1DFF8F83359
:2034FC001878002116F026FC04001EBF606D407810F00C0F2DD0216DC0064CBF886CC86ED0
:20351C000622016801F10805A91C684615F056FB287800F00F0105291BD145096946C0F3CC
:20353C00801016F097FB002813D03168684616F08DFB0746316804F1380016F087FB874203
:20355C000DD0606D4178C80604D440F2014016F079FBBBE1607B40F002006073B6E13368AB
:20357C001E2010FB07F6981906226946C01D15F025FB606D4178C806F0D5A17B0129EDD142
:20359C00DFF858038178480605D5E90703D4206D41F20A4102E0206D41F20441418041837E
:2035BC00418693E115F03AFF0028FAD10EF006FC012802D0012016F041FB87E10DF04DFD76
:2035DC0084E1DFF81C53286816F034FB0400F7D020790328F4D1207A00F00F01072937D139
:2035FC00C04800684169497A4A1E11425ED0617A04F10A035A5C02F03F02252A56DBA17A88
:20361C008A09012A52D111F03F0F4FD0007C15F071FAE17ACA074CBF04F1110204F10B0212
:20363C008B0748BF921D0B0748BF921CC90648BFD21C1621127852094A43AB498B180A3120
:20365C00EB608A5A428699898186DA89C2862DE000F00F00082829D1A17A880926D129B3CE
:20367C00A0480168087C15F045FAE17A074688071CD5062201F001015143601800F10C01C8
:20369C00684615F09BFA207AC009FF280ED0694616F0E0FA50B1306800F10D01684616F083
:2036BC00C5FA18B90521384614F070F82079032802D0002013F0AEFEFEE0DFF830B29BF8BF
:2036DC0002000024FF281BD015F014FA804608F16C09D9F8040016F0ADFA2A4601790329B7
:2036FC0001D011000CD08368197801F003008D06009003D50124009818B9BAE01000FAD083
:20371C00E4E05D7803F1020A34B31AF8010B784B01902C2098F806C01F6810FB0CFC6744B4
:20373C004FF0010E87F805E0002A1F6898F806E007F11A0C019F10FB0EFE07F01F070CF89E
:20375C000E7098F806701B6810FB07F01844019BC3F38113C3761AD10098032808F21717F3
:20377C001AD0ADB199F8000068B108F1F4000278012A0DD1564B1A78072A04D0082A04BF9E
:20379C00C078012804D13D217970012038709DE0584A1378012BFAD098F8940070B32D1F94
:2037BC00EDB253462A4640460DF018FB00281EBF51490878002807D13D2179700120387080
:2037DC00306816F02FFA81E04C4801688847064698F80610DBF804204FF4D0704143501881
:2037FC00002280F8412108F59E700168807949080DF05EFE42490A6830469047009803288D
:20381C0019D04048416909788A0708D541690878C1074CBFE81C28461AF8000000E0812080
:20383C0089F808002A460098C3B29BF80200514605F034FD1DE09AF800001CB11B2804BFB2
:20385C00022D01251C2803D22F490B5C9D4205D0B8700721404616F051FA0AE01C4801785D
:20387C0008295146404602D115F0A0FD01E000F079FAD9F8040020E0244C207830B3244DF4
:20389C00286816F0D7F908B3017903291ED1017A8A0611D5807AE178C0F38112914202BF38
:2038BC00217900F01F00814206D1A078002801BF607800280121A170286816F0AFF905E053
:2038DC00002013F0A7FD862016F030FABDE8F78FC80F0020680F0020D50F0020C00C002086
:2038FC00BC0A0020540F0020E0070020780E00204C3F0020D20F0020D73F0020B01D0020C7
:20391C00B41D002094BE01002CBF0100EC3E0020AC0C00202DE9F04F0F46380589B018D52C
:20393C00DFF8EC532888FF280ED0C0B215F0E2F8040009D0A079162116F06CF9204615F04C
:20395C00CFF8204616F062F9FF20288087F40060DAE1F80508D5022015F05CFD08B10CF051
:20397C0006F987F48070CFE1B80604D511F099F987F02000C8E1F8070CD515F081FA30B166
:20399C0000218160DFF88C03006800B1804787F00100B9E1380704D511F09BFC87F0080082
:2039BC00B2E1F8060FD50021002200230691059204910393029101920091022016F022F9BD
:2039DC0087F01000A0E1B8070FD500210023069105910491039302910191009101223C204F
:2039FC0016F010F987F002008EE179074FF01E08C94EDFF828A340F1CD80C9480022002144
:203A1C0008920791007816F095F90446C5488178FF2904BF002013F0FDFCA07A15F06AF874
:203A3C0005469AF8000095F82E91002805F5947B69D0606D807A022818BF032807D1306874
:203A5C000D3016F0DBF810B93068C11D07915946484616F0FFF8A0B3606D807C3368002854
:203A7C0018BF012804D11946584616F0EFF804E05A464946184616F091F9FF2843D018FB1D
:203A9C0000F83068404406225946C01D15F096F8306810F80810404400F1010BC01D41F078
:203ABC00020908900622616DC87A00F0010085F82E01606D00F10C0105F5947015F07EF82E
:203ADC0021E05946484616F095F8E0B130685A46494616F063F9FF2815D018FB00F83068A0
:203AFC0040440D3016F08AF858B9306840440D3016F084F8002801BF30684044417F012987
:203B1C0001D149F0020905F12C004B46017806914289120905920122698C0491C08808999D
:203B3C00029140080390CDF800B0079801900020A97916F067F8D5F89C017B498842A87996
:203B5C000CBF0021012116F051F87848AB7902682C214B43134401221A73AB7904684B439E
:203B7C0023445A73AB7904684B4323449A73AB7904684B432344DA73AB79006811FB03F105
:203B9C000144002008740720A97909F04EFA87F00400B9E038060FD50021002306910591F7
:203BBC000491039302910191009101223B2016F029F887F08000A7E0F8045DD55C4930687A
:203BDC000C680D3016F01AF8002844D13068C11D0D3016F007F83EE0606D4178480704F123
:203BFC003E0526D5287802281EBF03286878012830D16978306804F1380216F0CFF8814653
:203C1C00B9F1FF0F15D0306818FB09F948440D3015F0F4FF68B930684844C11D0D3015F018
:203C3C00E1FF30684844C11D062204F1380014F0C5FF2878022818BF03280BD130680D30EC
:203C5C0015F0DCFF30B93068C11D062204F1300014F0B4FF2468002CBED13648DAF804204A
:203C7C0000784FF4805111F0CDFC10B18E2015F0B5FF87F4805047E0B80505D515F022FA80
:203C9C002D4901200860FEE7780504D514F001FB87F4806038E0780405D5812015F09EFFC2
:203CBC0087F4804030E0B9042DD5244C206810B1002013F0AFFB4FF0FF3020600020204CDE
:203CDC000DF0BAFB216851F8202F684690471D494A6B086BC96A24681B4B01920090029305
:203CFC00ADF810106B46194A19491A4803921A4A07922568194AA8471949086003F0B8FF26
:203D1C0087F4005000E0002009B0BDE8F08F00BF7E240020480F0020680F0020880E00209A
:203D3C00D70F0020780E00204DE501104C3F00204C0F0020C70F00207C052043380F002011
:203D5C00200F0020441E00207D8E01008D8E0100D0230020280800201EFB0080EC0A00203C
:203D7C001C0F00202DE9F043044685B0084611F801CBDFF8A483DFF8A4332C22BCF1030F38
:203D9C004FF0000904F5A47704F1660504F1F40600F0C380BCF1070F00F08081BCF10F0FAA
:203DBC000CD0BCF1110F00F02481BCF11A0F00F03681BCF11B0F00F061818EE1707A8207A1
:203DDC0003D40F2184F8191159E008784A7800EB02233B808878CA7800EB02237B80087906
:203DFC004A7900EB0223BB808879CA7900EB0223FB80087A38724A7A887A02EB00237B81CC
:203E1C00C87A0A7B00EB0223BB81487B8A7B00EB0223FB81C87B0A7C00EB02233B82487CC5
:203E3C008A7C00EB02237B82C87C0A7D00EB0223BB82487D897D00EB0122B948FA8201786C
:203E5C008A0658BF4FF01A0913D504F5AA70049079890391387A029021890191F888009088
:203E7C00BB887A883988204615F0B4FEC8B14FF01E09707A410706D40F2084F819012046ED
:203E9C0015F0A4FEF0E04A460F21204615F09AFEF8880090BB887A88A179484610F076F861
:203EBC00E9E004F1860079888180BA88C2800222F98801810270A0F80290A18EC91DE983D8
:203EDC00628E8188B1EB520F02BFC188A28E914202BF0089E18EB0EB111F1CD0287C012886
:203EFC0004BF687C0F2809D0687D00281CBF687C1A2803D00F21A976FE2176E0FC212046C7
:203F1C0015F0FCFEF8880090BB887A883988A07915F054FEAFE0102167E0707AC20709D469
:203F3C0031781A200129707002D1FF220D213BE00D215AE085F8009085F8069001233371EB
:203F5C00082204F1B00015F035FE0146022204F1B80015F02FFE04F1A80801460822404658
:203F7C0015F028FE07460821404615F01FFE04F19C0804223946404615F01CFE042140464E
:203F9C0015F014FE04F1A00015F00CFE04F1980015F004FE6348018841F0800101803078A7
:203FBC00012805D1FF220421204615F0F3FD62E06E7C0F2E18BF142E04D00E2E1CBF0C2E9E
:203FDC001A2E11D12F7C204615F0E0FD0421204615F094FE012F05D11A2EAE7614BFFD2123
:203FFC00FB2102E0314600E00421204615F086FE41E00E783E761A2E497879766DD118682B
:20401C00A679411C564301F806901968A37912FB03F20A4482F80490A179787E56E0A7797F
:20403C0018680E785743074406F01F0117F8210FB60938B17878F040C00703D594F896019A
:20405C00042805D120221A21204615F0BBFD12E0F970A179186812FB01F28118204681F835
:20407C002360002115F0DCF928B998F800004FF4804109F075F94FF0010932E0A1791868D5
:20409C0051430144C88808B981F80190A179186812FB01F2811881F80490ECE709780F2944
:2040BC0017D01A2919D1A1791868514301441A2081F80190A1791B6812FB01F2991881F852
:2040DC000490F17A01F0FB01F172A1790CF060FAD1E7717A01F0FD0171720146204615F0DE
:2040FC0051FD687C1A2812D1A87C17281CBF1028FC280CD12E7C204615F048FD012E03BF8B
:20411C001A20A876FB211A21204615F0F7FD484605B0BDE8F08300BFC70F00204C3F0020BA
:20413C00200E00209C0F00202DE9F84F0422FF21684614F039FDDFF88C63B0780024FF2886
:20415C0000F0BE8114F0D6FC0546B07814F070FE064605F217100178012908BF417800F0DC
:20417C00008105F1740005F5927A817B022904BF05F174018C7395F89201022805F174002A
:20419C0008BF85F89241017F022904BF05F174010C77BAF80E1019B19AF80C0009F0E0F887
:2041BC006889C94F288105F58D7BBA7AF879397B80184118F87A0818797B00EB0109BBF8B7
:2041DC000400BBF80010401CABF804004944BBF80200ABF800101018ABF80200DAF8000065
:2041FC00F0B1BA4995F806E00B681C2103F10E0C11FB0EFE0E331CF80E1030F811C0CC443A
:20421C0020F811C01C2195F806C011FB0CFC13F80C3000EB4300B0F84A105218A0F84A2012
:20423C0012F02AFEF879002804BFF87A002805D1387B002804BF787B002840D0F481A04648
:20425C00F07EC00910D0307F00F00701022907DA00F0F802401C00F007001043307703E05E
:20427C00A879002110F0CEFE2989E8892C744118287FA981012804BF688CE883A979012297
:20429C00072008F0D2FE787805F1740658B101212977B078002804BFB07B002803D1307FFF
:2042BC0008B9688CE8839AF81400002862D0022804BFF87A002858D18AF814405AE0A979E0
:2042DC000022072008F0B1FEEC83317F11F0070F02D1F07EC00903D0A879002110F092FEED
:2042FC00B87A38B1287F01284FF0010827D1688CE88324E0BBF80600401CABF806004FF017
:20431C000208287CD8B172490868AB7995F82E6000F1140268694FEA400C40F6C4105B011D
:20433C0010FB06CC0CF5F660D0500968A87901EB4010C17C01F0F00141F00401C174A88984
:20435C002989814206D088429DD2081A41F2AB02904298DA287C08B1052901D0082100E012
:20437C003E21284613F012FAAAE0787A10B102218AF81410F87BC1070DD538692968C860C8
:20439C0000F59070C86052480168A87901F114024001145014E04E48AB79026802F11401F3
:2043BC005B01C858CAF810004848AB7901681C2001F108024343D0582968C860EC832C77C5
:2043DC00444A50690078810702D5B87B802800D181203070404991F8200018B1294601202B
:2043FC0015F014F8284609F0E1FE02281BD1F079022805DB6A46394928460EF03DFE04469E
:20441C00284615F0BBFB01285AD020000DD02246694628460FF05CFA38B9284609F0C6FE11
:20443C00012802D14CE001284AD00121284615F0A1FBFEF7F3FD012842D028460DF0EBFE50
:20445C0000F0F8FB264F3868002839D0B888AA7990421CBF4FF6FD71884231D12148007BA4
:20447C0014F04EFD04002BD084F80080A8791E4960800A68A879115C217105F5C97210791E
:20449C00607196F90010A171A4F80890BBF80200608114F0F5FC050005D1FF204FF0FF3156
:2044BC002073216109E02878207315F05FFB0146A86815F057FB80082061204639688847C3
:2044DC00BDE8F18F780E0020980C0020980E00209C0E002094BE0100AC3C002054250020AD
:2044FC00800E0020E0230020643F00202DE9F84FDFF894030278112A03D0122A00F0BE814E
:20451C00C0E1DFF888331878002115F013FC05000AD1002012F07EFF002012F07BFFBDE8C7
:20453C00F24FFF2015F002BC05F14C0A9AF8000008B90121E972401CDAF808108AF8000058
:20455C004A78D106DCD4E97DDAF80470C2B28A424FF00008D4D305F1280407F1900907F171
:20457C007306C34640F08C80A87F7075E97FB175DAF808205278930710D5EA7FD30604D569
:20459C00C01E707501F0EF01B175C7F874B086F800800022B17D01F0FE016AE1910608D456
:2045BC00E08B00B1E07E3076E08B00B1206AC9F80000DAF808004178CA070DD5E08B00287F
:2045DC001CBF206A002807D0C9F80000A17EE08B814238BF08463076E87FC1060CD5B86B30
:2045FC00217800EB8100B863B86BA98CA63100EB81007867022002E0C7F874B0002030705E
:20461C00DAF80800417811F0030F22D1007814F003FF5FEA00081CD098F8B000032809D1E5
:20463C00E87F810615D440F02000E877B07D40F020000DE068B9E87F81060AD500F0DF00B1
:20465C00E877707DA0F112017175B07D00F0DF00B075E97F002201F0FC01284608F05EFA11
:20467C00B8F1000F36D0E87F810633D598F8B00002282FD141462846BDE8F44F14F0D4BE8D
:20469C00E87F81060AD500F0DF00E877707DA0F112017175B07D00F0DF00B075DAF8080091
:2046BC004178C80717D5B07D717D00F0F700891E01F03F0182075CBF891D40F002004206CC
:2046DC0044BF491E00F0BF00B0757175C9F800B086F81880D6E09AF80020E87D121AD2B296
:2046FC008907009240F18280012A07F140083FD1B86BA98C00EB8100B863A87F00F03F0099
:20471C00A8777075E97FB175DAF8082053785A0703D5801F707501F0FD01B1750023707D44
:20473C00E17E00F03F00421898F80000521CC0F3800192B200F0030015F0A8FA00F59B7065
:20475C00A8841E21A88C90FBF1F18AB2B17D01F0FE01284608F0E2F986F800B0E08B00B14C
:20477C00E07E3076E08B00B1206AC9F8000089E0B86BA98C022A00EB8100B86326D1E87FE0
:20479C00C10706D5707D811F7175B07D00F0FE00B0750023707DE17E00F03F00421898F81F
:2047BC000000521CC0F3800192B200F0030015F06DFA00F59B70A8840022B17D01F0FE012C
:2047DC00284608F0ABF9607FA8F81A00617F0098491C081AC0B201281CDDB96BAA8CA63255
:2047FC0001EB820179670221317014E0B86BA98C00EB8100B863617F0098081AE97FCA06E5
:20481C00C0B207D5B96BAA8CA63201EB8201796702213170B0B395F81F80A97FD9F8002041
:20483C00E37E1A44C9F8002028F00108DAF808205278530748BF28F00208920748BF28F09C
:20485C000808012807D1207F3076C7F874B028F0100886F800B001F0C004404615F01AFA51
:20487C0000F03F002043707586F81680002208F0FC012846BDE8F84F08F050B9BDE8F14F3A
:20489C000DF001BDBDE8F18FC80F0020D50F00202DE9F041FF2806462AD114F049FC10F023
:2048BC001F0F22D0042011F0E5FD08B1042016E0012011F0DFFD08B1012010E0022011F0F7
:2048DC00D9FD08B102200AE0102011F0D3FD08B1102004E0082011F0CDFD20B10820BDE8C2
:2048FC00F04112F0B9B812F095FD0020BDE8F08112F0B2F88046012ED8F8044046F2A81782
:20491C0040F6C4100BD0022E5DD0042E00F0AB80082E00F0F380102E00F04281E5E7DFF8BF
:20493C00000301688F88102011F0A4FDE8B1102012F092F805466E6846B9022011F09AFDD7
:20495C0020B1022012F088F805466E68012011F091FD40B1B068A0EB8701A06813F02EFBA5
:20497C0008B94046C2E72846C0E7022011F082FD90B1022012F070F806460120756811F05C
:20499C0079FD38B1A868A0EB8701A06813F016FB0028E6D03046A9E7042011F06BFD08B133
:2049BC000420E7E7082011F065FD30B1082012F053F84168002999D1D3E7012011F05AFD99
:2049DC00002893D0CDE797490A689749D3690A7802EB82029E18F7884743042011F04AFDF0
:2049FC0007F5166788B1042012F036F806460220756811F03FFD0028CCD0A868C11BA06855
:204A1C0013F0DCFA0028C5D1ABE7082011F032FDD8B1082012F020F805466E6846B90120ED
:204A3C0011F028FD20B1012012F016F805466E68022011F01FFD002895D0B068C11BA06849
:204A5C0013F0BCFA00288ED18BE7012011F012FD08B10120C8E7102011F00CFD08B11020AB
:204A7C00A5E70220AAE771490A68714953690A7803EB0216B7894743082011F0FBFC07F5CB
:204A9C00166780B1082011F0E7FF05466E6846B9012011F0EFFC20B1012011F0DDFF0546F6
:204ABC006E680420C5E7012011F0E4FC28B1012011F0D2FF064604209AE7102011F0DAFC6E
:204ADC0080B1102011F0C8FF05466E6846B9022011F0D0FC20B1022011F0BEFF05466E68B0
:204AFC000420A6E7022011F0C5FC28B1022011F0B3FF064604207BE704205FE714F088FC93
:204B1C0008B1D0F89070042011F0B4FC58B1042011F0A2FF06460820756811F0ABFC002833
:204B3C0018BF002C68E7012011F0A4FC60B1012011F092FF0646082011F09CFC002818BF75
:204B5C00002C3FF427AF0CE7102011F093FCA8B1102011F081FF05466E6846B9022011F004
:204B7C0089FC20B1022011F077FF05466E68082011F080FC002818BF002C5DE7022011F0D2
:204B9C0079FC58B1022011F067FF06460820756811F070FC002818BF002C2DE708200DE7D9
:204BBC00032014F037FC08B1D0F89870022011F061FC50B1022011F04FFF0646102011F087
:204BDC0059FC002818BF002CBBE7042011F052FC28B1042011F040FF0646102008E7082054
:204BFC0011F048FC80B1082011F036FF05466E6846B9012011F03EFC20B1012011F02CFF2B
:204C1C0005466E68102014E7012011F033FC28B1012011F021FF06461020E9E61020CDE692
:204C3C00603F0020500F0020D80F0020540F0020D90F00202DE9FE4FDFF818536F681FB934
:204C5C00BDE8F74F14F08ABF3878DFF80CB3C34EDFF80C83012818BF02280AD004281CBF38
:204C7C000828102805D0402818BF802800F0A78069E114F063FA0028FAD0012011F0FAFB29
:204C9C0020B1012011F0E8FE11F0A0FB082011F0F1FB20B1082011F0DFFE11F097FB387854
:204CBC00FFF7F6FD814698F80100D9F80440002850D004F0BDFD13F01DFF8246DAF80000D3
:204CDC00009047689AF8060088F80300BCB10099484606F0AFFF022811D099F80010012950
:204CFC0002D0082965D02EE128B914F03FFF00F5E8504C30A0600120A87011215CE0009846
:204D1C00017880290BD10820964930700A787869012A1ABFDBF824100978012114E00720A6
:204D3C0030709AF8060014F083F80446207BC10748BF9AF8060067D48A48017878690129C3
:204D5C001CBFDBF824104978C1729AF8060088F80200BFE0B9F1000F11D099F800004F45E9
:204D7C0009D1012818BF082801D134BBF0E0002012F050FB21E0012802D0082817D0E2E03A
:204D9C00002CF3D014F0F2FE0146A06801F5C241A83113F013F928B914F0E8FE00F5E850EC
:204DBC004C30A060112030700121A97005E0002CDCD00820A870122131704846BFE098F8C1
:204DDC000100002800F0888004F032FD13F092FE8146D9F800000090D0F804A098F80200BA
:204DFC0013F088FE019099F8060088F803003978402913D199F8060014F01AF80446207BD3
:204E1C00C1070BD599F8060013F074FE052112F0BDFC207B00F0FE00207399E014F088F9C7
:204E3C0010F01F0F32D0012011F024FB20B1012011F012FE11F0CAFA082011F01BFB20B10D
:204E5C00082011F009FE11F0C1FAA878FFF720FD07467C68D4B1009906F0ECFE022815D0D9
:204E7C003978012902D008290BD00CE028B914F07DFE00F5E8504C30A06011203070012175
:204E9C0056E0082057E0002012F0C4FA0198484520D0009933480A78802A0BD10821317085
:204EBC0000780128DAF814001ABFDBF82410097801210AE00722327000780128DAF8140090
:204EDC000EBF0121DBF824104978C17299F8060088F80200009832E014F02AF910F01F0FB4
:204EFC0036D0012011F0C6FA20B1012011F0B4FD11F06CFA082011F0BDFA20B1082011F0C9
:204F1C00ABFD11F063FAA878FFF7C2FC074638787C68012802D008280CD019E0C4B114F041
:204F3C0025FE00F5E8504C30A060012111203070A97003E064B1A870122131703846BDE876
:204F5C00FE4F07F0E9B8BDE8FE4F002012F062BABDE8F78F043F002094BE0100C80F002048
:204F7C00780E0020CC0F00202DE9F84F05004ED0DFF8E48298F80000092818BF0A2804D019
:204F9C000B281CBF0C280D2801D1212062E1A878002114F0CFFE040008BF4220F6D0AF4F25
:204FBC00A978DFF8BCA2397098F8000010B9A8788AF8000004F14806F068417801F0120183
:204FDC00022902BF706900280C2012D0607AF0B1A07B012804D1B5F8030008B1812816DA24
:204FFC006878402813DA204614F0B4FDB06808B907202FE1B561287801281FD1A07B002823
:20501C001CBF0128042819D19648007808B9122020E195494A78824208BF0920F8D0F0689C
:20503C00417848070AD504F1220180204A7F04F1380105F093FE08B10B200BE1687808B9C7
:20505C00112007E12878DFF82492DFF824B2012840F0AF8000212173F166217A012903D114
:20507C00B16968794871F4E0012000212072E1726173254608F082FF6060DBF80000804753
:20509C007C4A0146106802E06A68426000680028FAD10846D9F80010884769687648486188
:2050BC000021387814F0AAF939780122112007F0BCFFF0684178C80605D5284600F0E2FFAD
:2050DC00010024D0C6E0688C0EF0B4FF85F82100F068007814F0A0F904001CBF94F8B0004E
:2050FC00002807D0E87F40F02000E877687D40F0180068752846FDF7C1FA0100E2D134B1BF
:20511C0094F8B000012804BF284614F08BF9F0684178C8071CD505F14204A18800291CBF1B
:20513C003068002814D022788A4211D20F2014F00DFD68B1F06801788DF800100F20A28851
:20515C00ADF8012021788DF80310694614F0FAFC98F80000A0B94949087800281EBFF0683B
:20517C00417811F0030F03D04548006814F0E6FC112088F8000001212972FFF75BFD68E095
:20519C00284611F035FC00281CBFB168002960D0AA7B012A04D02A69808802EB800202E0CE
:2051BC00486E2A69821895F8B810104609F024FB4FE0207A00284CD0DBF800108847054623
:2051DC003878012114F01AF900202E4920720A683E7811460B68187A002802BF586D0378F4
:2051FC00B3421FD0C9689142F4D138789AF80010884224D113F044FE616888421FD111F00C
:20521C003BFE40F2014014F01DFD1F491F4A204808600121107808F0A3F8D9F8001028467B
:20523C00884716E01B4E30780128DEDD084611F0B1F813F05DFE3078411E3170D5E7204678
:20525C0014F078FCD9F8001028468847204610F06FFE0020BDE8F28FC80F0020D60F002087
:20527C00D50F0020D40F0020780E0020B41D0020B01D00204C0F002021800000880E0020B5
:20529C006C0F0020603F0020480F0020C70F0020D5550000D43F00202DE9F043A24CA349AB
:2052BC00A34E20700A22002008600D23A14840F2222102704380818085B09F4A9F48106064
:2052DC0037789F480770FF2F7178417008BFFF29B2788270F378C37035790571767946716A
:2052FC0014D1FF2A08BFFF2B10D1FF2D08BFFF2E0CD194490A7802704B7843708A7882707A
:20531C00CB78C3700A790271497941718E4902788E4D8F4E8F4F0A7043784B7082788A70C6
:20533C00C378CB7002790A7140798B4A4871FF2028706870A870E87028716871002087493D
:20535C000880F06B8649407808708649F06B007808701388844885490380F06BC06C08608E
:20537C008349F06B90F83C0008708249F06B90F83D0008708049F06B90F860000870F06B6C
:20539C00406901797D484A1E0270F06B7C49C0783870F06B8069086008B912F03BF8F06B32
:2053BC007849C069086008B912F034F8F06B416D75480C2213F002FC14F0B8FBF06B7349CD
:2053DC00006A086008B912F025F8F06BDFF8C081406AC8F8000008B912F01CF8F06B6D493A
:2053FC00806A086008B912F015F8F06B6A49C06D002840D001220A75F06BC06D02681378DD
:20541C00C3F3400048B1F06BC06D02681378C3F3C00000280CBF0120022048750020886093
:20543C00C8600861F06BC06D426890780870F06BC06D4268D0784870F06BC06D426813781E
:20545C008B70F06BC06D42685078C870F06BC06D426810790871F06BC06D4268507948711B
:20547C00F06BC06D426890798871F06BC06D4268D079C87101E000220A7501F099F90728F4
:20549C000AD105F0FBFC20784FF4804107F068FF002011F0BFFF43E04048016888478146A6
:2054BC000CF0A4FDD8F8000001688847684613F0A3FBD8F8002004208DF80000694652F84A
:2054DC00043F00209847364908600FF0C3F8F068344A01883878344B01431180484619685B
:2054FC0088470C21314813F0A3FF284614F01AFB14F014FB2E4800214FF6FF72016082802C
:20551C00F06B90F858102B48006813F089FC0121FF2013F073FF20784FF4005107F020FFC9
:20553C0005B0BDE8F08300BFC70F0020380F0020D04F0050700E00203C0F0020B63F0050A9
:20555C00400E0020E8120050500E0020480E002094BE0100C40F0020A22400209E0F00208A
:20557C00C60F0020D40F0020C23F0020543F0020D53F0020D63F0020D33F0020CB0F0020AE
:20559C00200F0020240F0020F83E0020280F00202C0F0020300F0020543E0020B01D002047
:2055BC00583F0020A00F0020B41D0020FC0D0020800E00206C3F00202DE9F84FDFF8A09250
:2055DC0099F80000002114F0B5FB040004F1500602D111F01FFF33E1207A08B9002140E058
:2055FC00217B491C21733069407920B1C9B2814208BF432135D004F14508002088F8070080
:20561C0013F03FFE7168D1F80320D4F810C022F07F4240F6C41303FB02CC4FF00B0E90FB3E
:20563C00FEFE0B2202FB1E00376880B24FF47A6148431CFA80F0B86033688A489968216102
:20565C0033690268B3F8030000281FBF706E0028A37B012B0CD0938801EB8301814207D320
:20567C003C2120460FF046FFBDE8F14FFFF7E2BA7D4D2878022809DBD0680168106809698D
:20569C00006912F09BFC08B10DF0ACF870684178CA0604F122071BD5A07B01280CD10021E1
:2056BC002172287810B1204614F044FA6F480078022107F055FEAEE0306890F8631001F084
:2056DC00E00141F0860180F8631069494166A2E0356805F1020A0021AAF8001005F1730B69
:2056FC00407A0FF0E5FE25302076207E8AF80C0020460BF029F9207D8BF815000020617D25
:20571C008BF816108BF81800C5F890003888401C388080B20EF08EFC84F821007068417820
:20573C0011F0030F42D1007813F076FE00283DD000F1B0010878032806D1E27F930603D40E
:20575C0042F02002E27731E001280ED1E07F40F02000E077607D40F0180060752046FCF70E
:20577C008DFF204613F05EFE20E008B10879E8B1E07F00F0DF00E077B068002804BFF06809
:20579C00002810D17068007D83280CD0617D03280A4607D0C80648BF01F0EF02100748BF03
:2057BC0002F0F70262752046FCF768FF617D002201F0FE01204607F0B1F90020AAF8300062
:2057DC0005F13E0094F8211001F03F010170A968628B01EB8201A9630021018298F800204D
:2057FC00828371684A78910709D5BA887A80A17F01F03F0141F08001A17701218183E07F9B
:20581C00C10608D5A86B7988A63100EB8100686702218BF80010174A107888B1387F0228E9
:20583C0018BF03280CD1144F38680D3014F0E6F930B93868C11D062204F1300013F0BEF9DC
:20585C00FFF7F8F94CB17068017E480605D54946BDE8F44F032014F075B9BDE8F18F00BF19
:20587C00D50F0020603F0020D43F0020C70F002000204E00880E0020680F00202DE9FE4F02
:20589C0001200190A24EA348A34F0278112A02D0122A0DD036E1A14C2078002114F04AFAC8
:2058BC009F490546087810B100220A70F2E0002D00F01B819B48DFF87082DFF87092386014
:2058DC0001222178112007F0B0FB286D696D009141F60802009B96495C78E30640F1DC801C
:2058FC00044641F20443B4F802C09C451FBFB4F81AE09E45B4F832C09C454FF4A05A1CD06A
:20591C0095F80EC0BCF1010F04BFB5F89EE09E4513D0B4F802E041F20A439E451FBFB4F824
:20593C001AB09B45B4F832E09E4506D0BCF1010F04BFB5F89EC09C4503D13380C7F80080F8
:20595C003DE0002340F2FE3B4FF0180C0CFB03FCA444BCF802E0A6F800E0BEF1010FF3D099
:20597C00BEF1000F55D0AEF1020EBEF1010F50D9BEEB0B0E1AD04FF48063BEEB030359D0E7
:20599C004FF4406BB3EB0B0343D09B1E012B40D91B1F3ED040F2FA3BB3EB0B036FD05B1E2D
:2059BC0061D0D81E46D0001F44D06DE0B4F800C040F6010EF4452CD15B1C022BC4DD386842
:2059DC00404525D1A06C0168A06C026810790831032804BF94F86C00012811D1D1F80E00BB
:2059FC0000281CBF088B00280AD091F8220010F0E00F05D101F11E0014F08CF8012870D082
:205A1C00A6F800A0C7F80090A06C01680020087167E0A87B01281CBF0428A6F800A0C7F838
:205A3C000090087D0028CAD08868401C002288600A82C4E7A87B012806BF41F20243ACF8B9
:205A5C000230ACF802A03088904215D1CA68088A4D8A521CCA60401C82B2AA4238BF2A462C
:205A7C004A82088208E000994A78D1064CBF816CC16E086800210171C7F800909FE700207B
:205A9C0011F0C8FC832003E0002011F0C3FC842014F04CF9012038E0438E41F204455C1BD5
:205ABC001CD0A41F1AD03380408890420CD1CA68088A4C8A521CCA60401C82B2A24238BF6A
:205ADC0022464A82088206E0087D20B18868401C002288600A8241F20643C846C7F8008005
:205AFC00338001211348007809E013F091FC58B1C08811490F4A308039600121107807F07B
:205B1C002FFC01E0002001900198BDE8FE8F00BF9A0F0020C80F0020480F0020D50F0020E7
:205B3C00D83F0020756B02103D140000D5550000543E0020C70F00209B040100F8B5144656
:205B5C0000254FF48067DFF89862C21B84B006F18C0334D0921E39D0521E47D0521E52D09C
:205B7C00521E58D0521E5CD0521E00F08280921E00F08480D21E00F0B480521E00F0BF801C
:205B9C00921E00F0C880521E00F08380521E00F0C980521E00F0D780521E00F0DA80521E14
:205BBC0046D0521E5ED0521E53D0921E00F0E580921E00F0E980521E00F0F48003E1012992
:205BDC0015D12078022822DC707006E101290ED1207802281BDA012804BFF178032900F00B
:205BFC00FB800028B070F0D17574E7E0012940F0E880207805280ADA0328F0700AD1002064
:205C1C00B0707074DAE001296CD12078022880F2D8807073E1E0102964D110222146714853
:205C3C0014E001295ED12078022863DA3071D4E0012957D1207802285CDA00287071F6D08E
:205C5C000120B074602206F12C01184612F0B6FFC3E00129FCD12078022802DAB07113F0CC
:205C7C0017F9BAE001293DD12078022842DAF072B3E0012936D12078B073AEE0002931D1AE
:205C9C0014F020F810B9FAF702FC1DE001207075A3E0072926D10622611C02A812F056FDC3
:205CBC0000950023217801AA02A808F037FBB0B9F07A10B914F006F810B1F07A012808D12D
:205CDC009DF80400FAF7F4FB0546502012F026FA1EE0716A9DF80420012088547DE034250D
:205CFC007BE001296DD1317C2078022903D0C11F0A2902D365E0102863D1F0736DE001290F
:205D1C005FD1317D20783075002908BF012864D1FAF74AFB61E0012953D12078032850DC4A
:205D3C00F0745AE001294CD12078022849DC002847D03074022803BF1020F07301200020D8
:205D5C0013F0E4FE49E001293BD1207812F020FB43E07079002834D1602908D1002C30D067
:205D7C0060222146184612F029FF012003E0012927D134B32078B0742FE0012921D104B3EB
:205D9C0020781949087028E0D9B913F09BFF30B9FAF723FC0546502012F0C0F91DE00120B1
:205DBC00B0751AE001290CD12178022909DA012904BFB07800280FD07174084613F070F840
:205DDC000BE0182509E00F2806DA022904D121880FF01EFD054600E00225284605B0F0BD9A
:205DFC00001C0020003D0020DB3F00202DE9F04FDFF84C9204460D460020ADF1440D0146B7
:205E1C001F460D9016460E9183460F91D9F808A0CDF840B00AF022FF262803D00AF01EFF7F
:205E3C00252825D1308843F6070181420ED040F60201814206D0B0F5C15F19D1F07B022853
:205E5C0016DD43E0F07B022812DD3FE096F8240002280DDD307C0F2838D13169C1F3142138
:205E7C00B1F5803F04D00F2830D1B1F5A02F2DD1002D2BD056B328784FF0010808FA00F017
:205E9C001AEA000F22D03046594613F0CFFA65606C4DA660A86980B110A800900DA90EAA84
:205EBC000FAB304605F0C2FF0E980B214FF6FF72502311F043FCFF2808D013F07BFA824666
:205EDC002878022804DB504613F0D4FE5C46B2E000286DD103F028F95B495C4E086840F0F6
:205EFC000200086009A8C9F8006013F011F8584E5849707809AA0B9005F1DC000EF0C0F938
:205F1C00554905F58C7009AA0EF0BAF909A812F057FF192109AB3078504A0A9005F15C0048
:205F3C000FF0D6FE4E4A05F178001A2109AB0FF0CFFE4C495A4605F5AA7013460FF0E8FB2D
:205F5C0049495A4605F5CC7013460FF0E1FB47480068C0F3814030B1454A05F13000042163
:205F7C005B4611F027FCB078012802D10E2008F079F905F19C0012F09FFD05F1940012F0C8
:205F9C009BFD594685F82C1085F82010072085F84002A962A960374B197085F82D1005265E
:205FBC00E960354A2E6104206A6211F0F3FD287805EB8001401CC1F8B440C0B228705046D3
:205FDC0013F058FE1FB901A812F0BCFD01AF38684FF4FA76E6602060B86941466062388A1B
:205FFC006175E082F869E062786800280CBF40F6C410594620612148E06120622175A061EA
:20601C00F86800B1E061786900B12062B86800B1A061C82204F1300059460BF0D4F904F1C1
:20603C004800594611F0B4F915495A4604F1B00013460FF06DFB204611B0BDE8F08FC046FB
:20605C00CC210840E00F002000200940110000E000BD010039870100B1D2000075360100D8
:20607C0069280100798001001D840100B44F0050454B0100E03F002009C40000CF620100B4
:20609C00739301002DE9F84F0446002000900CB911F0C0F904F1500569462E68204607F01B
:2060BC008DFA08B9072015E1A04641F28839DFF828B2DFF828A2002469684A7A182060439F
:2060DC0001233718A3401A420AD098F80E103AF81100388000211BF80420BA73F97302E09C
:2060FC0040F6010038800021798007F118007860387B00F0EF00387340F08000387398F86B
:20611C000E10012916D1397B002C0CBF0220052001F0F0010843387324B913F027FD00F571
:20613C007A6000E04846B860787B00F0F00040F0020017E0002C0CBF0221002100F0F000CC
:20615C000843387324B913F011FD00F57A6000E00020B860022C797B0CBF0120022001F037
:20617C00F00108437873641C06F14800386106F16801032C79619FDB98F80E0000240128B6
:20619C0008F1A80718D108F19C0070631822314612F014FD06F118002865C5F85490397838
:2061BC0001F0F00141F005013970787800F0F00040F00200787000E07463B068C8F8100078
:2061DC0047480178397413F05DFDB064454881690978CA07826912784CBF1F210F2193072A
:2061FC008269127848BF41F0200153078269107848BF41F04001020706F14C0248BF41F0E9
:20621C008001117054706968887C00F0030008F13E0150700B7863F38200507049789470FC
:20623C0061F3C3005070D47040F0100050703465746508F13800F06598F80E00012818BF91
:20625C00042815D0A86830B1B0F803009070A968D1F805003065E86830B1B0F80300D070E5
:20627C00E968D1F8050070651F4801684868F06508F13000B065D07D00F0EF00D07540F05A
:20629C008000D07500F0F00040F00600D0752869B0F8030000280EBF144849F640414843EA
:2062BC0070661349087838B15078117840F0400001F0FE01507011700E498B7850785906B4
:2062DC004CBF40F0200000F0DF005070009806F063FA0020BDE8F28F506E0210F46B021046
:2062FC00D23F002094BE01006C0F002000204E00880E0020C00C00202DE9F04F0746F88930
:20631C0016468A46ADF1440DC01D80B205460BF0BBFF8F4CFF280BD1284604F08FFC8542A5
:20633C0004DD641C207800B905200DE1012000E000206178D9B916B1022E18D1B8B1387AF5
:20635C00FE88BD888DF82C000023009309AAADF82A60E18E94F83300ADF82850032305F0A7
:20637C0069FB9DF834003874BDF83060BE81BD8955B3FE8946B3AD1B4FF000091FFA85F830
:20639C004D463A7C761B202ED4BFB6B22026E06808EB050189B2334601EB423101AA12F077
:2063BC006BFF0AEB050101A8324611F083FC58B9AD19FE89ADB2AE42E3DCB9F1010F1CBFBA
:2063DC004846B88140F0B98094F83310E58EE06801AA04238846490312F04EFF019800F023
:2063FC00FF007E2806D140467C2110F04DFF019800F0FF007C2840F0A480F98942F201025D
:20641C00C81D86B2A819824240F39980F8883A7AC0F301238DF83900B88843EA82038DF832
:20643C00383082100F468DF83A200423C1F3851200F0030042EA80128DF83B2011FB03F010
:20645C0000F0FC00FA1D7B198DF83C001FFA83FB90B20D282ADB5046002212F03FFE024676
:20647C0005210EA812F03AFE9DF83C103B4600F03F07524641EAA011B8008DF83C1040F025
:20649C00020096278DF83D0029468DF83E7040460EF0E0FC074659460EAA07234046677032
:2064BC000EF0D8FC384360704DD135E004F1240051463A4609F0FAF80EA90A68381900F1EA
:2064DC0024094846097902607B1D0171002204F1240099B212F002FE9DF83C10962300F0E5
:2064FC003F078DF83E3041EAA011B8008DF83C10334640F002000EAF49468DF83D003A6887
:20651C00B8790A60BA88887140468A8004F1240229460EF09FFC6070E18EAD194FEA880709
:20653C00AAB28919E18607EBC8010919A1F84C2048B1404659460EF039FA607803E00520C9
:20655C0000E001206070C0B211B0BDE8F08FC046A81E00202DE9F0470D4629048F4EDFF88A
:20657C00408240F1F1808F4F38780BF077FD040018D021780120B02917D0B12908D0C2299B
:20659C0000F0B580D02904BF2046FBF7C5FAD1E0207920B92289E1886088F9F786FD2046EF
:2065BC0011F068FE85F40040F5E02179787A012910D009294DD01E2900F08D807D2908BF34
:2065DC00002806D16088FAF74BFA01466088FAF704FA86E00028FCD1207AB4F80290082801
:2065FC0035D14846FAF73CFA02280FD003282ED1002204214846FAF7F4F80246F86900280E
:20661C001CBF4368002B22D004211EE0002210214846FAF7E6F88246484613F0BBFB60B1C8
:20663C0098F8001039B9811D4079012200F0010013F068FA01E001203070F86900281CBFD6
:20665C004368002B03D05246052148469847608805E0002845D1617860881A2902D1FAF777
:20667C009BF93EE0FAF7FCF9022819D0032838D120896688012804BF6089032806D1E06869
:20669C00827804213046FAF7ACF800E01820F96900291CBF4B68002B23D00246042117E001
:2066BC00218966880120012904BF6189032907D1E268917821B9012210213046FAF791F8B9
:2066DC00F96900291CBF4B68002B0AD0024605213046984705E0B87A18B9608800210AF0D2
:2066FC00F3FD217904F1080013F02CFB57E7A07810BB0121B9742022E11C07F18C0012F098
:20671C005DFA202204F1230107F1AC0012F056FA202204F1430107F1CC0012F04FFAF869CA
:20673C0000281CBF4368002B06D0627806210020984701E00028D9D11B480078FF2802D007
:20675C00214603F065F82DE7690716D5174A106880B1FAF78FF904000CD0E07A50B901210F
:20677C00E1726268A17A2089F9F782FF606808B112F0BEFB85F004000DE028070AD5317852
:20679C00012902BF98F80000002808F087FA85F0080000E00020BDE8F08700BFDC3F00202E
:2067BC00AA0F0020001C002087250020743F002038B5784D687912F093FB77490028086096
:2067DC0063D00022026002730868C2610262A87912F086FB71490028086056D000220260E2
:2067FC00C27200200A681074052308684374002209684A61E87A12F073FB69490028086092
:20681C0043D0684C21782878491D10FB01F080B212F066FB64490028886036D020780028E2
:20683C006FD0698811FB00F080B212F059FB5F4A0028506029D05E482278017811FB02F057
:20685C0080B212F04DFB5B49002808601DD000250AE0E8B212F0ECFA0021418081600180AA
:20687C000223037101736D1C2078E9B28142F0D312F036FB50490028086006D020784000A3
:20689C0012F02EFB4D49002808607CD020781C2110FB01F080B212F023FB494A00281060F1
:2068BC0071D02078400112F01BFB46490028086069D0102012F014FB43490028086062D0A3
:2068DC002078000112F00CFB4049002808605AD0302012F005FB3E490028086053D0207893
:2068FC002C2110FB01F080B212F0FAFA394A0028106048D0207812F0F3FA37490028086041
:20691C0041D0364C364D2178287800EB4100C000103080B212F0E4FA32490028086032D0C1
